:03000000020918DA
:0C091800787FE4F6D8FD75810702080026
:1008FB00E4FFFEE4FDFC0DBD00010CED64644C70E7
:0C090B00F50FBF00010EBE04EABFFBE7C1
:0109170022BD
:1008000075900975A0091208FBE4FBFAAF03A8076D
:100810007401088002C333D8FC2408F5901208FB49
:100820000BBB00010AEB64034A70E17A007B01AF65
:1008300003A8077404088002C313D8FC2408F590A9
:10084000AF03A8077401088002C333D8FC2408F55D
:10085000A01208FB0BBB00010AEB64034A70D07ABC
:10086000007B01AF03A8077408088002C333D8FCDB
:10087000FFAE03A8067404088002C313D8FC2FF54A
:10088000A01208FB0BBB00010AEB64034A70D47A88
:10089000007B01AF03A8077408088002C333D8FCAB
:1008A00004F590AF03A8077420088002C313D8FC96
:1008B00004F5A01208FB0BBB00010AEB64034A70AD
:1008C000D27A007B01C3EB9403EA648094804003F6
:1008D00002082BAF03A8077401088002C333D8FCB9
:1008E000FFAE03A8067420088002C313D8FC2FF5BE
:0B08F000901208FB0BBB00010A80CA3D
:00000001FF
